{
  "_format": "hh-sol-artifact-1",
  "contractName": "Etherdocs",
  "sourceName": "contracts/Etherdocs.sol",
  "abi": [
    {
      "inputs": [],
      "stateMutability": "nonpayable",
      "type": "constructor"
    },
    {
      "inputs": [
        {
          "internalType": "string",
          "name": "_uuid",
          "type": "string"
        }
      ],
      "name": "getCertificate",
      "outputs": [
        {
          "internalType": "string",
          "name": "",
          "type": "string"
        },
        {
          "internalType": "address",
          "name": "",
          "type": "address"
        },
        {
          "internalType": "address",
          "name": "",
          "type": "address"
        },
        {
          "internalType": "string",
          "name": "",
          "type": "string"
        },
        {
          "internalType": "string",
          "name": "",
          "type": "string"
        },
        {
          "internalType": "bool",
          "name": "",
          "type": "bool"
        }
      ],
      "stateMutability": "view",
      "type": "function"
    },
    {
      "inputs": [],
      "name": "getCertificatesIssuedBy",
      "outputs": [
        {
          "internalType": "string[]",
          "name": "",
          "type": "string[]"
        }
      ],
      "stateMutability": "view",
      "type": "function"
    },
    {
      "inputs": [],
      "name": "getCertificatesIssuedFor",
      "outputs": [
        {
          "internalType": "string[]",
          "name": "",
          "type": "string[]"
        }
      ],
      "stateMutability": "view",
      "type": "function"
    },
    {
      "inputs": [],
      "name": "getIssuedByCount",
      "outputs": [
        {
          "internalType": "uint256",
          "name": "",
          "type": "uint256"
        }
      ],
      "stateMutability": "view",
      "type": "function"
    },
    {
      "inputs": [],
      "name": "getIssuedForCount",
      "outputs": [
        {
          "internalType": "uint256",
          "name": "",
          "type": "uint256"
        }
      ],
      "stateMutability": "view",
      "type": "function"
    },
    {
      "inputs": [],
      "name": "getProfile",
      "outputs": [
        {
          "internalType": "address",
          "name": "",
          "type": "address"
        },
        {
          "internalType": "string",
          "name": "",
          "type": "string"
        },
        {
          "internalType": "string",
          "name": "",
          "type": "string"
        }
      ],
      "stateMutability": "view",
      "type": "function"
    },
    {
      "inputs": [
        {
          "internalType": "string",
          "name": "_uuid",
          "type": "string"
        }
      ],
      "name": "invalidateCertificate",
      "outputs": [],
      "stateMutability": "nonpayable",
      "type": "function"
    },
    {
      "inputs": [],
      "name": "isIssuer",
      "outputs": [
        {
          "internalType": "bool",
          "name": "",
          "type": "bool"
        }
      ],
      "stateMutability": "view",
      "type": "function"
    },
    {
      "inputs": [],
      "name": "isRegistered",
      "outputs": [
        {
          "internalType": "bool",
          "name": "",
          "type": "bool"
        }
      ],
      "stateMutability": "view",
      "type": "function"
    },
    {
      "inputs": [],
      "name": "isUser",
      "outputs": [
        {
          "internalType": "bool",
          "name": "",
          "type": "bool"
        }
      ],
      "stateMutability": "view",
      "type": "function"
    },
    {
      "inputs": [
        {
          "internalType": "string",
          "name": "_name",
          "type": "string"
        },
        {
          "internalType": "address",
          "name": "_userAddr",
          "type": "address"
        },
        {
          "internalType": "string",
          "name": "_uuid",
          "type": "string"
        },
        {
          "internalType": "string",
          "name": "_hashValue",
          "type": "string"
        },
        {
          "internalType": "string",
          "name": "_ipfsUrl",
          "type": "string"
        }
      ],
      "name": "issueCertificate",
      "outputs": [],
      "stateMutability": "nonpayable",
      "type": "function"
    },
    {
      "inputs": [
        {
          "internalType": "string",
          "name": "_name",
          "type": "string"
        }
      ],
      "name": "registerIssuer",
      "outputs": [],
      "stateMutability": "nonpayable",
      "type": "function"
    },
    {
      "inputs": [
        {
          "internalType": "string",
          "name": "_name",
          "type": "string"
        }
      ],
      "name": "registerUser",
      "outputs": [],
      "stateMutability": "nonpayable",
      "type": "function"
    },
    {
      "inputs": [
        {
          "internalType": "string",
          "name": "_uuid",
          "type": "string"
        },
        {
          "internalType": "address",
          "name": "_issuerAddr",
          "type": "address"
        },
        {
          "internalType": "address",
          "name": "_userAddr",
          "type": "address"
        },
        {
          "internalType": "string",
          "name": "_hashValue",
          "type": "string"
        }
      ],
      "name": "verifyCertificate",
      "outputs": [
        {
          "internalType": "bool",
          "name": "",
          "type": "bool"
        }
      ],
      "stateMutability": "view",
      "type": "function"
    }
  ],
  "bytecode": "0x608060405234801561001057600080fd5b50336000806101000a81548173ffffffffffffffffffffffffffffffffffffffff021916908373ffffffffffffffffffffffffffffffffffffffff1602179055506136b8806100606000396000f3fe608060405234801561001057600080fd5b50600436106100ea5760003560e01c80635b1146bd1161008c57806386af78fa1161006657806386af78fa14610225578063cfa026da14610243578063d6afc9b114610261578063ed0f2e7514610281576100ea565b80635b1146bd146101d15780636f4581dc146101ed578063704f1b9414610209576100ea565b806322366844116100c8578063223668441461015b57806324f349f914610179578063455a04ab146101955780634c22c119146101b3576100ea565b806306982546146100ef5780630a660bc01461011f5780630ae380ed1461013d575b600080fd5b610109600480360381019061010491906127fb565b6102b6565b60405161011691906128b5565b60405180910390f35b61012761047e565b60405161013491906128e9565b60405180910390f35b61014561048e565b60405161015291906128e9565b60405180910390f35b61016361049e565b60405161017091906128b5565b60405180910390f35b610193600480360381019061018e9190612904565b6104b3565b005b61019d6105e0565b6040516101aa9190612a8e565b60405180910390f35b6101bb6105f0565b6040516101c891906128b5565b60405180910390f35b6101eb60048036038101906101e69190612ab0565b610605565b005b61020760048036038101906102029190612904565b610885565b005b610223600480360381019061021e9190612904565b610a4e565b005b61022d610c17565b60405161023a91906128b5565b60405180910390f35b61024b610c2c565b6040516102589190612a8e565b60405180910390f35b610269610c3c565b60405161027893929190612bf4565b60405180910390f35b61029b60048036038101906102969190612904565b611064565b6040516102ad96959493929190612c39565b60405180910390f35b6000806005866040516102c99190612ceb565b908152602001604051809103902090508060060160019054906101000a900460ff16158061030657508060060160009054906101000a900460ff16155b15610315576000915050610476565b8473ffffffffffffffffffffffffffffffffffffffff168160010160009054906101000a900473ffffffffffffffffffffffffffffffffffffffff1673ffffffffffffffffffffffffffffffffffffffff161480156103c357508373ffffffffffffffffffffffffffffffffffffffff168160020160009054906101000a900473ffffffffffffffffffffffffffffffffffffffff1673ffffffffffffffffffffffffffffffffffffffff16145b801561046157506104608160040180546103dc90612d31565b80601f016020809104026020016040519081016040528092919081815260200182805461040890612d31565b80156104555780601f1061042a57610100808354040283529160200191610455565b820191906000526020600020905b81548152906001019060200180831161043857829003601f168201915b50505050508461139d565b5b15610470576001915050610476565b60009150505b949350505050565b6000610489336113f6565b905090565b6000610499336117e6565b905090565b6000803390506104ad81611bd6565b91505090565b60006005826040516104c59190612ceb565b90815260200160405180910390209050600115158160060160009054906101000a900460ff1615151461052d576040517f08c379a000000000000000000000000000000000000000000000000000000000815260040161052490612dae565b60405180910390fd5b8060010160009054906101000a900473ffffffffffffffffffffffffffffffffffffffff1673ffffffffffffffffffffffffffffffffffffffff163373ffffffffffffffffffffffffffffffffffffffff16146105bf576040517f08c379a00000000000000000000000000000000000000000000000000000000081526004016105b690612e40565b60405180910390fd5b60008160060160016101000a81548160ff0219169083151502179055505050565b60606105eb33611ca7565b905090565b6000803390506105ff81612117565b91505090565b6001151561061233612175565b151514610654576040517f08c379a000000000000000000000000000000000000000000000000000000000815260040161064b90612ed2565b60405180910390fd5b6001151561066185612117565b1515146106a3576040517f08c379a000000000000000000000000000000000000000000000000000000000815260040161069a90612f64565b60405180910390fd5b600015156005846040516106b79190612ceb565b908152602001604051809103902060060160009054906101000a900460ff16151514610718576040517f08c379a000000000000000000000000000000000000000000000000000000000815260040161070f90612ff6565b60405180910390fd5b6000339050600060058560405161072f9190612ceb565b9081526020016040518091039020905060018160060160006101000a81548160ff0219169083151502179055508681600001908161076d91906131c2565b50818160010160006101000a81548173ffffffffffffffffffffffffffffffffffffffff021916908373ffffffffffffffffffffffffffffffffffffffff160217905550858160020160006101000a81548173ffffffffffffffffffffffffffffffffffffffff021916908373ffffffffffffffffffffffffffffffffffffffff1602179055508481600301908161080591906131c2565b508381600401908161081791906131c2565b508281600501908161082991906131c2565b5060018160060160016101000a81548160ff02191690831515021790555060068590806001815401808255809150506001900390600052602060002001600090919091909150908161087b91906131c2565b5050505050505050565b60003390506000600160008373ffffffffffffffffffffffffffffffffffffffff1673ffffffffffffffffffffffffffffffffffffffff1681526020019081526020016000209050600015158160010160149054906101000a900460ff16151514610925576040517f08c379a000000000000000000000000000000000000000000000000000000000815260040161091c906132e0565b60405180910390fd5b6000151561093283612117565b151514610974576040517f08c379a000000000000000000000000000000000000000000000000000000000815260040161096b9061334c565b60405180910390fd5b818160010160006101000a81548173ffffffffffffffffffffffffffffffffffffffff021916908373ffffffffffffffffffffffffffffffffffffffff16021790555060018160010160146101000a81548160ff021916908315150217905550828160000190816109e591906131c2565b506002829080600181540180825580915050600190039060005260206000200160009091909190916101000a81548173ffffffffffffffffffffffffffffffffffffffff021916908373ffffffffffffffffffffffffffffffffffffffff160217905550505050565b60003390506000600360008373ffffffffffffffffffffffffffffffffffffffff1673ffffffffffffffffffffffffffffffffffffffff1681526020019081526020016000209050600015158160010160149054906101000a900460ff16151514610aee576040517f08c379a0000000000000000000000000000000000000000000000000000000008152600401610ae5906133b8565b60405180910390fd5b60001515610afb83612175565b151514610b3d576040517f08c379a0000000000000000000000000000000000000000000000000000000008152600401610b3490613424565b60405180910390fd5b818160010160006101000a81548173ffffffffffffffffffffffffffffffffffffffff021916908373ffffffffffffffffffffffffffffffffffffffff16021790555060018160010160146101000a81548160ff02191690831515021790555082816000019081610bae91906131c2565b506004829080600181540180825580915050600190039060005260206000200160009091909190916101000a81548173ffffffffffffffffffffffffffffffffffffffff021916908373ffffffffffffffffffffffffffffffffffffffff160217905550505050565b600080339050610c2681612175565b91505090565b6060610c37336121d3565b905090565b60006060806000339050610c4f81611bd6565b610ccc57806040518060400160405280600281526020017f4e410000000000000000000000000000000000000000000000000000000000008152506040518060400160405280600281526020017f4e410000000000000000000000000000000000000000000000000000000000008152509350935093505061105f565b610cd581612117565b15610e78576000600360008373ffffffffffffffffffffffffffffffffffffffff1673ffffffffffffffffffffffffffffffffffffffff168152602001908152602001600020604051806060016040529081600082018054610d3690612d31565b80601f0160208091040260200160405190810160405280929190818152602001828054610d6290612d31565b8015610daf5780601f10610d8457610100808354040283529160200191610daf565b820191906000526020600020905b815481529060010190602001808311610d9257829003601f168201915b505050505081526020016001820160009054906101000a900473ffffffffffffffffffffffffffffffffffffffff1673ffffffffffffffffffffffffffffffffffffffff1673ffffffffffffffffffffffffffffffffffffffff1681526020016001820160149054906101000a900460ff1615151515815250509050806020015181600001516040518060400160405280600481526020017f5573657200000000000000000000000000000000000000000000000000000000815250945094509450505061105f565b610e8181612175565b15611024576000600160008373ffffffffffffffffffffffffffffffffffffffff1673ffffffffffffffffffffffffffffffffffffffff168152602001908152602001600020604051806060016040529081600082018054610ee290612d31565b80601f0160208091040260200160405190810160405280929190818152602001828054610f0e90612d31565b8015610f5b5780601f10610f3057610100808354040283529160200191610f5b565b820191906000526020600020905b815481529060010190602001808311610f3e57829003601f168201915b505050505081526020016001820160009054906101000a900473ffffffffffffffffffffffffffffffffffffffff1673ffffffffffffffffffffffffffffffffffffffff1673ffffffffffffffffffffffffffffffffffffffff1681526020016001820160149054906101000a900460ff1615151515815250509050806020015181600001516040518060400160405280600681526020017f4973737565720000000000000000000000000000000000000000000000000000815250945094509450505061105f565b6040517f08c379a000000000000000000000000000000000000000000000000000000000815260040161105690613490565b60405180910390fd5b909192565b606060008060608060008060058860405161107f9190612ceb565b908152602001604051809103902090508060010160009054906101000a900473ffffffffffffffffffffffffffffffffffffffff1673ffffffffffffffffffffffffffffffffffffffff163373ffffffffffffffffffffffffffffffffffffffff16148061113c57508060020160009054906101000a900473ffffffffffffffffffffffffffffffffffffffff1673ffffffffffffffffffffffffffffffffffffffff163373ffffffffffffffffffffffffffffffffffffffff16145b61117b576040517f08c379a000000000000000000000000000000000000000000000000000000000815260040161117290613522565b60405180910390fd5b806000018160010160009054906101000a900473ffffffffffffffffffffffffffffffffffffffff168260020160009054906101000a900473ffffffffffffffffffffffffffffffffffffffff1683600301846005018560060160019054906101000a900460ff168580546111ef90612d31565b80601f016020809104026020016040519081016040528092919081815260200182805461121b90612d31565b80156112685780601f1061123d57610100808354040283529160200191611268565b820191906000526020600020905b81548152906001019060200180831161124b57829003601f168201915b5050505050955082805461127b90612d31565b80601f01602080910402602001604051908101604052809291908181526020018280546112a790612d31565b80156112f45780601f106112c9576101008083540402835291602001916112f4565b820191906000526020600020905b8154815290600101906020018083116112d757829003601f168201915b5050505050925081805461130790612d31565b80601f016020809104026020016040519081016040528092919081815260200182805461133390612d31565b80156113805780601f1061135557610100808354040283529160200191611380565b820191906000526020600020905b81548152906001019060200180831161136357829003601f168201915b505050505091509650965096509650965096505091939550919395565b6000816040516020016113b09190612ceb565b60405160208183030381529060405280519060200120836040516020016113d79190612ceb565b6040516020818303038152906040528051906020012014905092915050565b6000806000905060005b6006805490508110156117dc57600060056006838154811061142557611424613542565b5b9060005260206000200160405161143c91906135f4565b90815260200160405180910390206040518061010001604052908160008201805461146690612d31565b80601f016020809104026020016040519081016040528092919081815260200182805461149290612d31565b80156114df5780601f106114b4576101008083540402835291602001916114df565b820191906000526020600020905b8154815290600101906020018083116114c257829003601f168201915b505050505081526020016001820160009054906101000a900473ffffffffffffffffffffffffffffffffffffffff1673ffffffffffffffffffffffffffffffffffffffff1673ffffffffffffffffffffffffffffffffffffffff1681526020016002820160009054906101000a900473ffffffffffffffffffffffffffffffffffffffff1673ffffffffffffffffffffffffffffffffffffffff1673ffffffffffffffffffffffffffffffffffffffff1681526020016003820180546115a490612d31565b80601f01602080910402602001604051908101604052809291908181526020018280546115d090612d31565b801561161d5780601f106115f25761010080835404028352916020019161161d565b820191906000526020600020905b81548152906001019060200180831161160057829003601f168201915b5050505050815260200160048201805461163690612d31565b80601f016020809104026020016040519081016040528092919081815260200182805461166290612d31565b80156116af5780601f10611684576101008083540402835291602001916116af565b820191906000526020600020905b81548152906001019060200180831161169257829003601f168201915b505050505081526020016005820180546116c890612d31565b80601f01602080910402602001604051908101604052809291908181526020018280546116f490612d31565b80156117415780601f1061171657610100808354040283529160200191611741565b820191906000526020600020905b81548152906001019060200180831161172457829003601f168201915b505050505081526020016006820160009054906101000a900460ff161515151581526020016006820160019054906101000a900460ff16151515158152505090508473ffffffffffffffffffffffffffffffffffffffff16816020015173ffffffffffffffffffffffffffffffffffffffff16036117c85782806117c49061363a565b9350505b5080806117d49061363a565b915050611400565b5080915050919050565b6000806000905060005b600680549050811015611bcc57600060056006838154811061181557611814613542565b5b9060005260206000200160405161182c91906135f4565b90815260200160405180910390206040518061010001604052908160008201805461185690612d31565b80601f016020809104026020016040519081016040528092919081815260200182805461188290612d31565b80156118cf5780601f106118a4576101008083540402835291602001916118cf565b820191906000526020600020905b8154815290600101906020018083116118b257829003601f168201915b505050505081526020016001820160009054906101000a900473ffffffffffffffffffffffffffffffffffffffff1673ffffffffffffffffffffffffffffffffffffffff1673ffffffffffffffffffffffffffffffffffffffff1681526020016002820160009054906101000a900473ffffffffffffffffffffffffffffffffffffffff1673ffffffffffffffffffffffffffffffffffffffff1673ffffffffffffffffffffffffffffffffffffffff16815260200160038201805461199490612d31565b80601f01602080910402602001604051908101604052809291908181526020018280546119c090612d31565b8015611a0d5780601f106119e257610100808354040283529160200191611a0d565b820191906000526020600020905b8154815290600101906020018083116119f057829003601f168201915b50505050508152602001600482018054611a2690612d31565b80601f0160208091040260200160405190810160405280929190818152602001828054611a5290612d31565b8015611a9f5780601f10611a7457610100808354040283529160200191611a9f565b820191906000526020600020905b815481529060010190602001808311611a8257829003601f168201915b50505050508152602001600582018054611ab890612d31565b80601f0160208091040260200160405190810160405280929190818152602001828054611ae490612d31565b8015611b315780601f10611b0657610100808354040283529160200191611b31565b820191906000526020600020905b815481529060010190602001808311611b1457829003601f168201915b505050505081526020016006820160009054906101000a900460ff161515151581526020016006820160019054906101000a900460ff16151515158152505090508473ffffffffffffffffffffffffffffffffffffffff16816040015173ffffffffffffffffffffffffffffffffffffffff1603611bb8578280611bb49061363a565b9350505b508080611bc49061363a565b9150506117f0565b5080915050919050565b600080600360008473ffffffffffffffffffffffffffffffffffffffff1673ffffffffffffffffffffffffffffffffffffffff16815260200190815260200160002060010160149054906101000a900460ff1690506000600160008573ffffffffffffffffffffffffffffffffffffffff1673ffffffffffffffffffffffffffffffffffffffff16815260200190815260200160002060010160149054906101000a900460ff16905081158015611c8b575080155b15611c9b57600092505050611ca2565b6001925050505b919050565b60606000611cb4836113f6565b905060008167ffffffffffffffff811115611cd257611cd1612672565b5b604051908082528060200260200182016040528015611d0557816020015b6060815260200190600190039081611cf05790505b5090506000805b60068054905081101561210b576000600560068381548110611d3157611d30613542565b5b90600052602060002001604051611d4891906135f4565b908152602001604051809103902060405180610100016040529081600082018054611d7290612d31565b80601f0160208091040260200160405190810160405280929190818152602001828054611d9e90612d31565b8015611deb5780601f10611dc057610100808354040283529160200191611deb565b820191906000526020600020905b815481529060010190602001808311611dce57829003601f168201915b505050505081526020016001820160009054906101000a900473ffffffffffffffffffffffffffffffffffffffff1673ffffffffffffffffffffffffffffffffffffffff1673ffffffffffffffffffffffffffffffffffffffff1681526020016002820160009054906101000a900473ffffffffffffffffffffffffffffffffffffffff1673ffffffffffffffffffffffffffffffffffffffff1673ffffffffffffffffffffffffffffffffffffffff168152602001600382018054611eb090612d31565b80601f0160208091040260200160405190810160405280929190818152602001828054611edc90612d31565b8015611f295780601f10611efe57610100808354040283529160200191611f29565b820191906000526020600020905b815481529060010190602001808311611f0c57829003601f168201915b50505050508152602001600482018054611f4290612d31565b80601f0160208091040260200160405190810160405280929190818152602001828054611f6e90612d31565b8015611fbb5780601f10611f9057610100808354040283529160200191611fbb565b820191906000526020600020905b815481529060010190602001808311611f9e57829003601f168201915b50505050508152602001600582018054611fd490612d31565b80601f016020809104026020016040519081016040528092919081815260200182805461200090612d31565b801561204d5780601f106120225761010080835404028352916020019161204d565b820191906000526020600020905b81548152906001019060200180831161203057829003601f168201915b505050505081526020016006820160009054906101000a900460ff161515151581526020016006820160019054906101000a900460ff16151515158152505090508673ffffffffffffffffffffffffffffffffffffffff16816020015173ffffffffffffffffffffffffffffffffffffffff16036120f75780606001518484815181106120dd576120dc613542565b5b602002602001018190525082806120f39061363a565b9350505b5080806121039061363a565b915050611d0c565b50819350505050919050565b600080600360008473ffffffffffffffffffffffffffffffffffffffff1673ffffffffffffffffffffffffffffffffffffffff16815260200190815260200160002060010160149054906101000a900460ff16905080915050919050565b600080600160008473ffffffffffffffffffffffffffffffffffffffff1673ffffffffffffffffffffffffffffffffffffffff16815260200190815260200160002060010160149054906101000a900460ff16905080915050919050565b606060006121e0836117e6565b905060008167ffffffffffffffff8111156121fe576121fd612672565b5b60405190808252806020026020018201604052801561223157816020015b606081526020019060019003908161221c5790505b5090506000805b60068054905081101561263757600060056006838154811061225d5761225c613542565b5b9060005260206000200160405161227491906135f4565b90815260200160405180910390206040518061010001604052908160008201805461229e90612d31565b80601f01602080910402602001604051908101604052809291908181526020018280546122ca90612d31565b80156123175780601f106122ec57610100808354040283529160200191612317565b820191906000526020600020905b8154815290600101906020018083116122fa57829003601f168201915b505050505081526020016001820160009054906101000a900473ffffffffffffffffffffffffffffffffffffffff1673ffffffffffffffffffffffffffffffffffffffff1673ffffffffffffffffffffffffffffffffffffffff1681526020016002820160009054906101000a900473ffffffffffffffffffffffffffffffffffffffff1673ffffffffffffffffffffffffffffffffffffffff1673ffffffffffffffffffffffffffffffffffffffff1681526020016003820180546123dc90612d31565b80601f016020809104026020016040519081016040528092919081815260200182805461240890612d31565b80156124555780601f1061242a57610100808354040283529160200191612455565b820191906000526020600020905b81548152906001019060200180831161243857829003601f168201915b5050505050815260200160048201805461246e90612d31565b80601f016020809104026020016040519081016040528092919081815260200182805461249a90612d31565b80156124e75780601f106124bc576101008083540402835291602001916124e7565b820191906000526020600020905b8154815290600101906020018083116124ca57829003601f168201915b5050505050815260200160058201805461250090612d31565b80601f016020809104026020016040519081016040528092919081815260200182805461252c90612d31565b80156125795780601f1061254e57610100808354040283529160200191612579565b820191906000526020600020905b81548152906001019060200180831161255c57829003601f168201915b505050505081526020016006820160009054906101000a900460ff161515151581526020016006820160019054906101000a900460ff16151515158152505090508673ffffffffffffffffffffffffffffffffffffffff16816040015173ffffffffffffffffffffffffffffffffffffffff160361262357806060015184848151811061260957612608613542565b5b6020026020010181905250828061261f9061363a565b9350505b50808061262f9061363a565b915050612238565b50819350505050919050565b6000604051905090565b600080fd5b600080fd5b600080fd5b600080fd5b6000601f19601f8301169050919050565b7f4e487b7100000000000000000000000000000000000000000000000000000000600052604160045260246000fd5b6126aa82612661565b810181811067ffffffffffffffff821117156126c9576126c8612672565b5b80604052505050565b60006126dc612643565b90506126e882826126a1565b919050565b600067ffffffffffffffff82111561270857612707612672565b5b61271182612661565b9050602081019050919050565b82818337600083830152505050565b600061274061273b846126ed565b6126d2565b90508281526020810184848401111561275c5761275b61265c565b5b61276784828561271e565b509392505050565b600082601f83011261278457612783612657565b5b813561279484826020860161272d565b91505092915050565b600073ffffffffffffffffffffffffffffffffffffffff82169050919050565b60006127c88261279d565b9050919050565b6127d8816127bd565b81146127e357600080fd5b50565b6000813590506127f5816127cf565b92915050565b600080600080608085870312156128155761281461264d565b5b600085013567ffffffffffffffff81111561283357612832612652565b5b61283f8782880161276f565b9450506020612850878288016127e6565b9350506040612861878288016127e6565b925050606085013567ffffffffffffffff81111561288257612881612652565b5b61288e8782880161276f565b91505092959194509250565b60008115159050919050565b6128af8161289a565b82525050565b60006020820190506128ca60008301846128a6565b92915050565b6000819050919050565b6128e3816128d0565b82525050565b60006020820190506128fe60008301846128da565b92915050565b60006020828403121561291a5761291961264d565b5b600082013567ffffffffffffffff81111561293857612937612652565b5b6129448482850161276f565b91505092915050565b600081519050919050565b600082825260208201905092915050565b6000819050602082019050919050565b600081519050919050565b600082825260208201905092915050565b60005b838110156129b3578082015181840152602081019050612998565b60008484015250505050565b60006129ca82612979565b6129d48185612984565b93506129e4818560208601612995565b6129ed81612661565b840191505092915050565b6000612a0483836129bf565b905092915050565b6000602082019050919050565b6000612a248261294d565b612a2e8185612958565b935083602082028501612a4085612969565b8060005b85811015612a7c5784840389528151612a5d85826129f8565b9450612a6883612a0c565b925060208a01995050600181019050612a44565b50829750879550505050505092915050565b60006020820190508181036000830152612aa88184612a19565b905092915050565b600080600080600060a08688031215612acc57612acb61264d565b5b600086013567ffffffffffffffff811115612aea57612ae9612652565b5b612af68882890161276f565b9550506020612b07888289016127e6565b945050604086013567ffffffffffffffff811115612b2857612b27612652565b5b612b348882890161276f565b935050606086013567ffffffffffffffff811115612b5557612b54612652565b5b612b618882890161276f565b925050608086013567ffffffffffffffff811115612b8257612b81612652565b5b612b8e8882890161276f565b9150509295509295909350565b612ba4816127bd565b82525050565b600082825260208201905092915050565b6000612bc682612979565b612bd08185612baa565b9350612be0818560208601612995565b612be981612661565b840191505092915050565b6000606082019050612c096000830186612b9b565b8181036020830152612c1b8185612bbb565b90508181036040830152612c2f8184612bbb565b9050949350505050565b600060c0820190508181036000830152612c538189612bbb565b9050612c626020830188612b9b565b612c6f6040830187612b9b565b8181036060830152612c818186612bbb565b90508181036080830152612c958185612bbb565b9050612ca460a08301846128a6565b979650505050505050565b600081905092915050565b6000612cc582612979565b612ccf8185612caf565b9350612cdf818560208601612995565b80840191505092915050565b6000612cf78284612cba565b915081905092915050565b7f4e487b7100000000000000000000000000000000000000000000000000000000600052602260045260246000fd5b60006002820490506001821680612d4957607f821691505b602082108103612d5c57612d5b612d02565b5b50919050565b7f696e76616c696465206365727469666963617465207575696400000000000000600082015250565b6000612d98601983612baa565b9150612da382612d62565b602082019050919050565b60006020820190508181036000830152612dc781612d8b565b9050919050565b7f6f6e6c79206973737565722063616e20696e76616c696461746520636572746960008201527f6669636174650000000000000000000000000000000000000000000000000000602082015250565b6000612e2a602683612baa565b9150612e3582612dce565b604082019050919050565b60006020820190508181036000830152612e5981612e1d565b9050919050565b7f6f6e6c79206973737565722063616e206973737565206365727469666963617460008201527f6573000000000000000000000000000000000000000000000000000000000000602082015250565b6000612ebc602283612baa565b9150612ec782612e60565b604082019050919050565b60006020820190508181036000830152612eeb81612eaf565b9050919050565b7f63657274696669636174652063616e2062652069737375656420746f2075736560008201527f7273206f6e6c7900000000000000000000000000000000000000000000000000602082015250565b6000612f4e602783612baa565b9150612f5982612ef2565b604082019050919050565b60006020820190508181036000830152612f7d81612f41565b9050919050565b7f636572746966696361746520776974682073616d65207575696420616c72656160008201527f6479207265676973746572656400000000000000000000000000000000000000602082015250565b6000612fe0602d83612baa565b9150612feb82612f84565b604082019050919050565b6000602082019050818103600083015261300f81612fd3565b9050919050565b60008190508160005260206000209050919050565b60006020601f8301049050919050565b600082821b905092915050565b6000600883026130787fffffffffffffffffffffffffffffffffffffffffffffffffffffffffffffffff8261303b565b613082868361303b565b95508019841693508086168417925050509392505050565b6000819050919050565b60006130bf6130ba6130b5846128d0565b61309a565b6128d0565b9050919050565b6000819050919050565b6130d9836130a4565b6130ed6130e5826130c6565b848454613048565b825550505050565b600090565b6131026130f5565b61310d8184846130d0565b505050565b5b81811015613131576131266000826130fa565b600181019050613113565b5050565b601f8211156131765761314781613016565b6131508461302b565b8101602085101561315f578190505b61317361316b8561302b565b830182613112565b50505b505050565b600082821c905092915050565b60006131996000198460080261317b565b1980831691505092915050565b60006131b28383613188565b9150826002028217905092915050565b6131cb82612979565b67ffffffffffffffff8111156131e4576131e3612672565b5b6131ee8254612d31565b6131f9828285613135565b600060209050601f83116001811461322c576000841561321a578287015190505b61322485826131a6565b86555061328c565b601f19841661323a86613016565b60005b828110156132625784890151825560018201915060208501945060208101905061323d565b8683101561327f578489015161327b601f891682613188565b8355505b6001600288020188555050505b505050505050565b7f69737375657220616c7265616479207265676973746572656400000000000000600082015250565b60006132ca601983612baa565b91506132d582613294565b602082019050919050565b600060208201905081810360008301526132f9816132bd565b9050919050565b7f616c726561647920726567697374657265642061732075736572000000000000600082015250565b6000613336601a83612baa565b915061334182613300565b602082019050919050565b6000602082019050818103600083015261336581613329565b9050919050565b7f7573657220616c72656164792072656769737465726564000000000000000000600082015250565b60006133a2601783612baa565b91506133ad8261336c565b602082019050919050565b600060208201905081810360008301526133d181613395565b9050919050565b7f616c726561647920726567697374657265642061732069737375657200000000600082015250565b600061340e601c83612baa565b9150613419826133d8565b602082019050919050565b6000602082019050818103600083015261343d81613401565b9050919050565b7f696e76616c696420726f6c650000000000000000000000000000000000000000600082015250565b600061347a600c83612baa565b915061348582613444565b602082019050919050565b600060208201905081810360008301526134a98161346d565b9050919050565b7f6f6e6c79207573657220616e64206973737565722063616e206765742063657260008201527f74696669636174652064657461696c7300000000000000000000000000000000602082015250565b600061350c603083612baa565b9150613517826134b0565b604082019050919050565b6000602082019050818103600083015261353b816134ff565b9050919050565b7f4e487b7100000000000000000000000000000000000000000000000000000000600052603260045260246000fd5b6000815461357e81612d31565b6135888186612caf565b945060018216600081146135a357600181146135b8576135eb565b60ff19831686528115158202860193506135eb565b6135c185613016565b60005b838110156135e3578154818901526001820191506020810190506135c4565b838801955050505b50505092915050565b60006136008284613571565b915081905092915050565b7f4e487b7100000000000000000000000000000000000000000000000000000000600052601160045260246000fd5b6000613645826128d0565b91507fffffffffffffffffffffffffffffffffffffffffffffffffffffffffffffffff82036136775761367661360b565b5b60018201905091905056fea2646970667358221220db6eb60261052dfae6ec7429c1de676ec06ad45058f09ce8b0272e83c95de6b664736f6c63430008110033",
  "linkReferences": {},
  "deployedLinkReferences": {}
}