{
  "_format": "hh-sol-artifact-1",
  "contractName": "Etherdocs",
  "sourceName": "contracts/Etherdocs.sol",
  "abi": [
    {
      "inputs": [],
      "stateMutability": "nonpayable",
      "type": "constructor"
    },
    {
      "inputs": [
        {
          "internalType": "string",
          "name": "_uuid",
          "type": "string"
        }
      ],
      "name": "getCertificate",
      "outputs": [
        {
          "internalType": "string",
          "name": "",
          "type": "string"
        },
        {
          "internalType": "address",
          "name": "",
          "type": "address"
        },
        {
          "internalType": "address",
          "name": "",
          "type": "address"
        },
        {
          "internalType": "string",
          "name": "",
          "type": "string"
        },
        {
          "internalType": "string",
          "name": "",
          "type": "string"
        },
        {
          "internalType": "bool",
          "name": "",
          "type": "bool"
        }
      ],
      "stateMutability": "view",
      "type": "function"
    },
    {
      "inputs": [],
      "name": "getCertificatesIssuedBy",
      "outputs": [
        {
          "internalType": "string[]",
          "name": "",
          "type": "string[]"
        }
      ],
      "stateMutability": "view",
      "type": "function"
    },
    {
      "inputs": [],
      "name": "getCertificatesIssuedFor",
      "outputs": [
        {
          "internalType": "string[]",
          "name": "",
          "type": "string[]"
        }
      ],
      "stateMutability": "view",
      "type": "function"
    },
    {
      "inputs": [],
      "name": "getIssuedByCount",
      "outputs": [
        {
          "internalType": "uint256",
          "name": "",
          "type": "uint256"
        }
      ],
      "stateMutability": "view",
      "type": "function"
    },
    {
      "inputs": [],
      "name": "getIssuedForCount",
      "outputs": [
        {
          "internalType": "uint256",
          "name": "",
          "type": "uint256"
        }
      ],
      "stateMutability": "view",
      "type": "function"
    },
    {
      "inputs": [],
      "name": "getProfile",
      "outputs": [
        {
          "internalType": "address",
          "name": "",
          "type": "address"
        },
        {
          "internalType": "string",
          "name": "",
          "type": "string"
        },
        {
          "internalType": "string",
          "name": "",
          "type": "string"
        }
      ],
      "stateMutability": "view",
      "type": "function"
    },
    {
      "inputs": [
        {
          "internalType": "string",
          "name": "_uuid",
          "type": "string"
        }
      ],
      "name": "invalidateCertificate",
      "outputs": [],
      "stateMutability": "nonpayable",
      "type": "function"
    },
    {
      "inputs": [],
      "name": "isIssuer",
      "outputs": [
        {
          "internalType": "bool",
          "name": "",
          "type": "bool"
        }
      ],
      "stateMutability": "view",
      "type": "function"
    },
    {
      "inputs": [],
      "name": "isRegistered",
      "outputs": [
        {
          "internalType": "bool",
          "name": "",
          "type": "bool"
        }
      ],
      "stateMutability": "view",
      "type": "function"
    },
    {
      "inputs": [],
      "name": "isUser",
      "outputs": [
        {
          "internalType": "bool",
          "name": "",
          "type": "bool"
        }
      ],
      "stateMutability": "view",
      "type": "function"
    },
    {
      "inputs": [
        {
          "internalType": "string",
          "name": "_name",
          "type": "string"
        },
        {
          "internalType": "address",
          "name": "_userAddr",
          "type": "address"
        },
        {
          "internalType": "string",
          "name": "_uuid",
          "type": "string"
        },
        {
          "internalType": "string",
          "name": "_hashValue",
          "type": "string"
        },
        {
          "internalType": "string",
          "name": "_ipfsUrl",
          "type": "string"
        }
      ],
      "name": "issueCertificate",
      "outputs": [],
      "stateMutability": "nonpayable",
      "type": "function"
    },
    {
      "inputs": [
        {
          "internalType": "string",
          "name": "_name",
          "type": "string"
        }
      ],
      "name": "registerIssuer",
      "outputs": [],
      "stateMutability": "nonpayable",
      "type": "function"
    },
    {
      "inputs": [
        {
          "internalType": "string",
          "name": "_name",
          "type": "string"
        }
      ],
      "name": "registerUser",
      "outputs": [],
      "stateMutability": "nonpayable",
      "type": "function"
    },
    {
      "inputs": [
        {
          "internalType": "string",
          "name": "_uuid",
          "type": "string"
        },
        {
          "internalType": "address",
          "name": "_issuerAddr",
          "type": "address"
        },
        {
          "internalType": "address",
          "name": "_userAddr",
          "type": "address"
        },
        {
          "internalType": "string",
          "name": "_hashValue",
          "type": "string"
        }
      ],
      "name": "verifyCertificate",
      "outputs": [
        {
          "internalType": "bool",
          "name": "",
          "type": "bool"
        }
      ],
      "stateMutability": "view",
      "type": "function"
    }
  ],
  "bytecode": "0x608060405234801561001057600080fd5b50336000806101000a81548173ffffffffffffffffffffffffffffffffffffffff021916908373ffffffffffffffffffffffffffffffffffffffff16021790555061353a806100606000396000f3fe608060405234801561001057600080fd5b50600436106100ea5760003560e01c80635b1146bd1161008c57806386af78fa1161006657806386af78fa14610225578063cfa026da14610243578063d6afc9b114610261578063ed0f2e7514610281576100ea565b80635b1146bd146101d15780636f4581dc146101ed578063704f1b9414610209576100ea565b806322366844116100c8578063223668441461015b57806324f349f914610179578063455a04ab146101955780634c22c119146101b3576100ea565b806306982546146100ef5780630a660bc01461011f5780630ae380ed1461013d575b600080fd5b6101096004803603810190610104919061270f565b6102b6565b60405161011691906127c9565b60405180910390f35b61012761047e565b60405161013491906127fd565b60405180910390f35b61014561048e565b60405161015291906127fd565b60405180910390f35b61016361049e565b60405161017091906127c9565b60405180910390f35b610193600480360381019061018e9190612818565b6104b3565b005b61019d6105e0565b6040516101aa91906129a2565b60405180910390f35b6101bb6105f0565b6040516101c891906127c9565b60405180910390f35b6101eb60048036038101906101e691906129c4565b610605565b005b61020760048036038101906102029190612818565b610885565b005b610223600480360381019061021e9190612818565b610a4e565b005b61022d610c17565b60405161023a91906127c9565b60405180910390f35b61024b610c2c565b60405161025891906129a2565b60405180910390f35b610269610c3c565b60405161027893929190612b08565b60405180910390f35b61029b60048036038101906102969190612818565b611064565b6040516102ad96959493929190612b4d565b60405180910390f35b6000806005866040516102c99190612bff565b908152602001604051809103902090508060060160019054906101000a900460ff16158061030657508060060160009054906101000a900460ff16155b15610315576000915050610476565b8473ffffffffffffffffffffffffffffffffffffffff168160010160009054906101000a900473ffffffffffffffffffffffffffffffffffffffff1673ffffffffffffffffffffffffffffffffffffffff161480156103c357508373ffffffffffffffffffffffffffffffffffffffff168160020160009054906101000a900473ffffffffffffffffffffffffffffffffffffffff1673ffffffffffffffffffffffffffffffffffffffff16145b801561046157506104608160040180546103dc90612c45565b80601f016020809104026020016040519081016040528092919081815260200182805461040890612c45565b80156104555780601f1061042a57610100808354040283529160200191610455565b820191906000526020600020905b81548152906001019060200180831161043857829003601f168201915b5050505050846112b1565b5b15610470576001915050610476565b60009150505b949350505050565b60006104893361130a565b905090565b6000610499336116fa565b905090565b6000803390506104ad81611aea565b91505090565b60006005826040516104c59190612bff565b90815260200160405180910390209050600115158160060160009054906101000a900460ff1615151461052d576040517f08c379a000000000000000000000000000000000000000000000000000000000815260040161052490612cc2565b60405180910390fd5b8060010160009054906101000a900473ffffffffffffffffffffffffffffffffffffffff1673ffffffffffffffffffffffffffffffffffffffff163373ffffffffffffffffffffffffffffffffffffffff16146105bf576040517f08c379a00000000000000000000000000000000000000000000000000000000081526004016105b690612d54565b60405180910390fd5b60008160060160016101000a81548160ff0219169083151502179055505050565b60606105eb33611bbb565b905090565b6000803390506105ff8161202b565b91505090565b6001151561061233612089565b151514610654576040517f08c379a000000000000000000000000000000000000000000000000000000000815260040161064b90612de6565b60405180910390fd5b600115156106618561202b565b1515146106a3576040517f08c379a000000000000000000000000000000000000000000000000000000000815260040161069a90612e78565b60405180910390fd5b600015156005846040516106b79190612bff565b908152602001604051809103902060060160009054906101000a900460ff16151514610718576040517f08c379a000000000000000000000000000000000000000000000000000000000815260040161070f90612f0a565b60405180910390fd5b6000339050600060058560405161072f9190612bff565b9081526020016040518091039020905060018160060160006101000a81548160ff0219169083151502179055508681600001908161076d91906130d6565b50818160010160006101000a81548173ffffffffffffffffffffffffffffffffffffffff021916908373ffffffffffffffffffffffffffffffffffffffff160217905550858160020160006101000a81548173ffffffffffffffffffffffffffffffffffffffff021916908373ffffffffffffffffffffffffffffffffffffffff1602179055508481600301908161080591906130d6565b508381600401908161081791906130d6565b508281600501908161082991906130d6565b5060018160060160016101000a81548160ff02191690831515021790555060068590806001815401808255809150506001900390600052602060002001600090919091909150908161087b91906130d6565b5050505050505050565b60003390506000600160008373ffffffffffffffffffffffffffffffffffffffff1673ffffffffffffffffffffffffffffffffffffffff1681526020019081526020016000209050600015158160010160149054906101000a900460ff16151514610925576040517f08c379a000000000000000000000000000000000000000000000000000000000815260040161091c906131f4565b60405180910390fd5b600015156109328361202b565b151514610974576040517f08c379a000000000000000000000000000000000000000000000000000000000815260040161096b90613260565b60405180910390fd5b818160010160006101000a81548173ffffffffffffffffffffffffffffffffffffffff021916908373ffffffffffffffffffffffffffffffffffffffff16021790555060018160010160146101000a81548160ff021916908315150217905550828160000190816109e591906130d6565b506002829080600181540180825580915050600190039060005260206000200160009091909190916101000a81548173ffffffffffffffffffffffffffffffffffffffff021916908373ffffffffffffffffffffffffffffffffffffffff160217905550505050565b60003390506000600360008373ffffffffffffffffffffffffffffffffffffffff1673ffffffffffffffffffffffffffffffffffffffff1681526020019081526020016000209050600015158160010160149054906101000a900460ff16151514610aee576040517f08c379a0000000000000000000000000000000000000000000000000000000008152600401610ae5906132cc565b60405180910390fd5b60001515610afb83612089565b151514610b3d576040517f08c379a0000000000000000000000000000000000000000000000000000000008152600401610b3490613338565b60405180910390fd5b818160010160006101000a81548173ffffffffffffffffffffffffffffffffffffffff021916908373ffffffffffffffffffffffffffffffffffffffff16021790555060018160010160146101000a81548160ff02191690831515021790555082816000019081610bae91906130d6565b506004829080600181540180825580915050600190039060005260206000200160009091909190916101000a81548173ffffffffffffffffffffffffffffffffffffffff021916908373ffffffffffffffffffffffffffffffffffffffff160217905550505050565b600080339050610c2681612089565b91505090565b6060610c37336120e7565b905090565b60006060806000339050610c4f81611aea565b610ccc57806040518060400160405280600281526020017f4e410000000000000000000000000000000000000000000000000000000000008152506040518060400160405280600281526020017f4e410000000000000000000000000000000000000000000000000000000000008152509350935093505061105f565b610cd58161202b565b15610e78576000600360008373ffffffffffffffffffffffffffffffffffffffff1673ffffffffffffffffffffffffffffffffffffffff168152602001908152602001600020604051806060016040529081600082018054610d3690612c45565b80601f0160208091040260200160405190810160405280929190818152602001828054610d6290612c45565b8015610daf5780601f10610d8457610100808354040283529160200191610daf565b820191906000526020600020905b815481529060010190602001808311610d9257829003601f168201915b505050505081526020016001820160009054906101000a900473ffffffffffffffffffffffffffffffffffffffff1673ffffffffffffffffffffffffffffffffffffffff1673ffffffffffffffffffffffffffffffffffffffff1681526020016001820160149054906101000a900460ff1615151515815250509050806020015181600001516040518060400160405280600481526020017f5573657200000000000000000000000000000000000000000000000000000000815250945094509450505061105f565b610e8181612089565b15611024576000600160008373ffffffffffffffffffffffffffffffffffffffff1673ffffffffffffffffffffffffffffffffffffffff168152602001908152602001600020604051806060016040529081600082018054610ee290612c45565b80601f0160208091040260200160405190810160405280929190818152602001828054610f0e90612c45565b8015610f5b5780601f10610f3057610100808354040283529160200191610f5b565b820191906000526020600020905b815481529060010190602001808311610f3e57829003601f168201915b505050505081526020016001820160009054906101000a900473ffffffffffffffffffffffffffffffffffffffff1673ffffffffffffffffffffffffffffffffffffffff1673ffffffffffffffffffffffffffffffffffffffff1681526020016001820160149054906101000a900460ff1615151515815250509050806020015181600001516040518060400160405280600681526020017f4973737565720000000000000000000000000000000000000000000000000000815250945094509450505061105f565b6040517f08c379a0000000000000000000000000000000000000000000000000000000008152600401611056906133a4565b60405180910390fd5b909192565b606060008060608060008060058860405161107f9190612bff565b90815260200160405180910390209050806000018160010160009054906101000a900473ffffffffffffffffffffffffffffffffffffffff168260020160009054906101000a900473ffffffffffffffffffffffffffffffffffffffff1683600301846005018560060160019054906101000a900460ff1685805461110390612c45565b80601f016020809104026020016040519081016040528092919081815260200182805461112f90612c45565b801561117c5780601f106111515761010080835404028352916020019161117c565b820191906000526020600020905b81548152906001019060200180831161115f57829003601f168201915b5050505050955082805461118f90612c45565b80601f01602080910402602001604051908101604052809291908181526020018280546111bb90612c45565b80156112085780601f106111dd57610100808354040283529160200191611208565b820191906000526020600020905b8154815290600101906020018083116111eb57829003601f168201915b5050505050925081805461121b90612c45565b80601f016020809104026020016040519081016040528092919081815260200182805461124790612c45565b80156112945780601f1061126957610100808354040283529160200191611294565b820191906000526020600020905b81548152906001019060200180831161127757829003601f168201915b505050505091509650965096509650965096505091939550919395565b6000816040516020016112c49190612bff565b60405160208183030381529060405280519060200120836040516020016112eb9190612bff565b6040516020818303038152906040528051906020012014905092915050565b6000806000905060005b6006805490508110156116f0576000600560068381548110611339576113386133c4565b5b906000526020600020016040516113509190613476565b90815260200160405180910390206040518061010001604052908160008201805461137a90612c45565b80601f01602080910402602001604051908101604052809291908181526020018280546113a690612c45565b80156113f35780601f106113c8576101008083540402835291602001916113f3565b820191906000526020600020905b8154815290600101906020018083116113d657829003601f168201915b505050505081526020016001820160009054906101000a900473ffffffffffffffffffffffffffffffffffffffff1673ffffffffffffffffffffffffffffffffffffffff1673ffffffffffffffffffffffffffffffffffffffff1681526020016002820160009054906101000a900473ffffffffffffffffffffffffffffffffffffffff1673ffffffffffffffffffffffffffffffffffffffff1673ffffffffffffffffffffffffffffffffffffffff1681526020016003820180546114b890612c45565b80601f01602080910402602001604051908101604052809291908181526020018280546114e490612c45565b80156115315780601f1061150657610100808354040283529160200191611531565b820191906000526020600020905b81548152906001019060200180831161151457829003601f168201915b5050505050815260200160048201805461154a90612c45565b80601f016020809104026020016040519081016040528092919081815260200182805461157690612c45565b80156115c35780601f10611598576101008083540402835291602001916115c3565b820191906000526020600020905b8154815290600101906020018083116115a657829003601f168201915b505050505081526020016005820180546115dc90612c45565b80601f016020809104026020016040519081016040528092919081815260200182805461160890612c45565b80156116555780601f1061162a57610100808354040283529160200191611655565b820191906000526020600020905b81548152906001019060200180831161163857829003601f168201915b505050505081526020016006820160009054906101000a900460ff161515151581526020016006820160019054906101000a900460ff16151515158152505090508473ffffffffffffffffffffffffffffffffffffffff16816020015173ffffffffffffffffffffffffffffffffffffffff16036116dc5782806116d8906134bc565b9350505b5080806116e8906134bc565b915050611314565b5080915050919050565b6000806000905060005b600680549050811015611ae0576000600560068381548110611729576117286133c4565b5b906000526020600020016040516117409190613476565b90815260200160405180910390206040518061010001604052908160008201805461176a90612c45565b80601f016020809104026020016040519081016040528092919081815260200182805461179690612c45565b80156117e35780601f106117b8576101008083540402835291602001916117e3565b820191906000526020600020905b8154815290600101906020018083116117c657829003601f168201915b505050505081526020016001820160009054906101000a900473ffffffffffffffffffffffffffffffffffffffff1673ffffffffffffffffffffffffffffffffffffffff1673ffffffffffffffffffffffffffffffffffffffff1681526020016002820160009054906101000a900473ffffffffffffffffffffffffffffffffffffffff1673ffffffffffffffffffffffffffffffffffffffff1673ffffffffffffffffffffffffffffffffffffffff1681526020016003820180546118a890612c45565b80601f01602080910402602001604051908101604052809291908181526020018280546118d490612c45565b80156119215780601f106118f657610100808354040283529160200191611921565b820191906000526020600020905b81548152906001019060200180831161190457829003601f168201915b5050505050815260200160048201805461193a90612c45565b80601f016020809104026020016040519081016040528092919081815260200182805461196690612c45565b80156119b35780601f10611988576101008083540402835291602001916119b3565b820191906000526020600020905b81548152906001019060200180831161199657829003601f168201915b505050505081526020016005820180546119cc90612c45565b80601f01602080910402602001604051908101604052809291908181526020018280546119f890612c45565b8015611a455780601f10611a1a57610100808354040283529160200191611a45565b820191906000526020600020905b815481529060010190602001808311611a2857829003601f168201915b505050505081526020016006820160009054906101000a900460ff161515151581526020016006820160019054906101000a900460ff16151515158152505090508473ffffffffffffffffffffffffffffffffffffffff16816040015173ffffffffffffffffffffffffffffffffffffffff1603611acc578280611ac8906134bc565b9350505b508080611ad8906134bc565b915050611704565b5080915050919050565b600080600360008473ffffffffffffffffffffffffffffffffffffffff1673ffffffffffffffffffffffffffffffffffffffff16815260200190815260200160002060010160149054906101000a900460ff1690506000600160008573ffffffffffffffffffffffffffffffffffffffff1673ffffffffffffffffffffffffffffffffffffffff16815260200190815260200160002060010160149054906101000a900460ff16905081158015611b9f575080155b15611baf57600092505050611bb6565b6001925050505b919050565b60606000611bc88361130a565b905060008167ffffffffffffffff811115611be657611be5612586565b5b604051908082528060200260200182016040528015611c1957816020015b6060815260200190600190039081611c045790505b5090506000805b60068054905081101561201f576000600560068381548110611c4557611c446133c4565b5b90600052602060002001604051611c5c9190613476565b908152602001604051809103902060405180610100016040529081600082018054611c8690612c45565b80601f0160208091040260200160405190810160405280929190818152602001828054611cb290612c45565b8015611cff5780601f10611cd457610100808354040283529160200191611cff565b820191906000526020600020905b815481529060010190602001808311611ce257829003601f168201915b505050505081526020016001820160009054906101000a900473ffffffffffffffffffffffffffffffffffffffff1673ffffffffffffffffffffffffffffffffffffffff1673ffffffffffffffffffffffffffffffffffffffff1681526020016002820160009054906101000a900473ffffffffffffffffffffffffffffffffffffffff1673ffffffffffffffffffffffffffffffffffffffff1673ffffffffffffffffffffffffffffffffffffffff168152602001600382018054611dc490612c45565b80601f0160208091040260200160405190810160405280929190818152602001828054611df090612c45565b8015611e3d5780601f10611e1257610100808354040283529160200191611e3d565b820191906000526020600020905b815481529060010190602001808311611e2057829003601f168201915b50505050508152602001600482018054611e5690612c45565b80601f0160208091040260200160405190810160405280929190818152602001828054611e8290612c45565b8015611ecf5780601f10611ea457610100808354040283529160200191611ecf565b820191906000526020600020905b815481529060010190602001808311611eb257829003601f168201915b50505050508152602001600582018054611ee890612c45565b80601f0160208091040260200160405190810160405280929190818152602001828054611f1490612c45565b8015611f615780601f10611f3657610100808354040283529160200191611f61565b820191906000526020600020905b815481529060010190602001808311611f4457829003601f168201915b505050505081526020016006820160009054906101000a900460ff161515151581526020016006820160019054906101000a900460ff16151515158152505090508673ffffffffffffffffffffffffffffffffffffffff16816020015173ffffffffffffffffffffffffffffffffffffffff160361200b578060600151848481518110611ff157611ff06133c4565b5b60200260200101819052508280612007906134bc565b9350505b508080612017906134bc565b915050611c20565b50819350505050919050565b600080600360008473ffffffffffffffffffffffffffffffffffffffff1673ffffffffffffffffffffffffffffffffffffffff16815260200190815260200160002060010160149054906101000a900460ff16905080915050919050565b600080600160008473ffffffffffffffffffffffffffffffffffffffff1673ffffffffffffffffffffffffffffffffffffffff16815260200190815260200160002060010160149054906101000a900460ff16905080915050919050565b606060006120f4836116fa565b905060008167ffffffffffffffff81111561211257612111612586565b5b60405190808252806020026020018201604052801561214557816020015b60608152602001906001900390816121305790505b5090506000805b60068054905081101561254b576000600560068381548110612171576121706133c4565b5b906000526020600020016040516121889190613476565b9081526020016040518091039020604051806101000160405290816000820180546121b290612c45565b80601f01602080910402602001604051908101604052809291908181526020018280546121de90612c45565b801561222b5780601f106122005761010080835404028352916020019161222b565b820191906000526020600020905b81548152906001019060200180831161220e57829003601f168201915b505050505081526020016001820160009054906101000a900473ffffffffffffffffffffffffffffffffffffffff1673ffffffffffffffffffffffffffffffffffffffff1673ffffffffffffffffffffffffffffffffffffffff1681526020016002820160009054906101000a900473ffffffffffffffffffffffffffffffffffffffff1673ffffffffffffffffffffffffffffffffffffffff1673ffffffffffffffffffffffffffffffffffffffff1681526020016003820180546122f090612c45565b80601f016020809104026020016040519081016040528092919081815260200182805461231c90612c45565b80156123695780601f1061233e57610100808354040283529160200191612369565b820191906000526020600020905b81548152906001019060200180831161234c57829003601f168201915b5050505050815260200160048201805461238290612c45565b80601f01602080910402602001604051908101604052809291908181526020018280546123ae90612c45565b80156123fb5780601f106123d0576101008083540402835291602001916123fb565b820191906000526020600020905b8154815290600101906020018083116123de57829003601f168201915b5050505050815260200160058201805461241490612c45565b80601f016020809104026020016040519081016040528092919081815260200182805461244090612c45565b801561248d5780601f106124625761010080835404028352916020019161248d565b820191906000526020600020905b81548152906001019060200180831161247057829003601f168201915b505050505081526020016006820160009054906101000a900460ff161515151581526020016006820160019054906101000a900460ff16151515158152505090508673ffffffffffffffffffffffffffffffffffffffff16816040015173ffffffffffffffffffffffffffffffffffffffff160361253757806060015184848151811061251d5761251c6133c4565b5b60200260200101819052508280612533906134bc565b9350505b508080612543906134bc565b91505061214c565b50819350505050919050565b6000604051905090565b600080fd5b600080fd5b600080fd5b600080fd5b6000601f19601f8301169050919050565b7f4e487b7100000000000000000000000000000000000000000000000000000000600052604160045260246000fd5b6125be82612575565b810181811067ffffffffffffffff821117156125dd576125dc612586565b5b80604052505050565b60006125f0612557565b90506125fc82826125b5565b919050565b600067ffffffffffffffff82111561261c5761261b612586565b5b61262582612575565b9050602081019050919050565b82818337600083830152505050565b600061265461264f84612601565b6125e6565b9050828152602081018484840111156126705761266f612570565b5b61267b848285612632565b509392505050565b600082601f8301126126985761269761256b565b5b81356126a8848260208601612641565b91505092915050565b600073ffffffffffffffffffffffffffffffffffffffff82169050919050565b60006126dc826126b1565b9050919050565b6126ec816126d1565b81146126f757600080fd5b50565b600081359050612709816126e3565b92915050565b6000806000806080858703121561272957612728612561565b5b600085013567ffffffffffffffff81111561274757612746612566565b5b61275387828801612683565b9450506020612764878288016126fa565b9350506040612775878288016126fa565b925050606085013567ffffffffffffffff81111561279657612795612566565b5b6127a287828801612683565b91505092959194509250565b60008115159050919050565b6127c3816127ae565b82525050565b60006020820190506127de60008301846127ba565b92915050565b6000819050919050565b6127f7816127e4565b82525050565b600060208201905061281260008301846127ee565b92915050565b60006020828403121561282e5761282d612561565b5b600082013567ffffffffffffffff81111561284c5761284b612566565b5b61285884828501612683565b91505092915050565b600081519050919050565b600082825260208201905092915050565b6000819050602082019050919050565b600081519050919050565b600082825260208201905092915050565b60005b838110156128c75780820151818401526020810190506128ac565b60008484015250505050565b60006128de8261288d565b6128e88185612898565b93506128f88185602086016128a9565b61290181612575565b840191505092915050565b600061291883836128d3565b905092915050565b6000602082019050919050565b600061293882612861565b612942818561286c565b9350836020820285016129548561287d565b8060005b858110156129905784840389528151612971858261290c565b945061297c83612920565b925060208a01995050600181019050612958565b50829750879550505050505092915050565b600060208201905081810360008301526129bc818461292d565b905092915050565b600080600080600060a086880312156129e0576129df612561565b5b600086013567ffffffffffffffff8111156129fe576129fd612566565b5b612a0a88828901612683565b9550506020612a1b888289016126fa565b945050604086013567ffffffffffffffff811115612a3c57612a3b612566565b5b612a4888828901612683565b935050606086013567ffffffffffffffff811115612a6957612a68612566565b5b612a7588828901612683565b925050608086013567ffffffffffffffff811115612a9657612a95612566565b5b612aa288828901612683565b9150509295509295909350565b612ab8816126d1565b82525050565b600082825260208201905092915050565b6000612ada8261288d565b612ae48185612abe565b9350612af48185602086016128a9565b612afd81612575565b840191505092915050565b6000606082019050612b1d6000830186612aaf565b8181036020830152612b2f8185612acf565b90508181036040830152612b438184612acf565b9050949350505050565b600060c0820190508181036000830152612b678189612acf565b9050612b766020830188612aaf565b612b836040830187612aaf565b8181036060830152612b958186612acf565b90508181036080830152612ba98185612acf565b9050612bb860a08301846127ba565b979650505050505050565b600081905092915050565b6000612bd98261288d565b612be38185612bc3565b9350612bf38185602086016128a9565b80840191505092915050565b6000612c0b8284612bce565b915081905092915050565b7f4e487b7100000000000000000000000000000000000000000000000000000000600052602260045260246000fd5b60006002820490506001821680612c5d57607f821691505b602082108103612c7057612c6f612c16565b5b50919050565b7f696e76616c696465206365727469666963617465207575696400000000000000600082015250565b6000612cac601983612abe565b9150612cb782612c76565b602082019050919050565b60006020820190508181036000830152612cdb81612c9f565b9050919050565b7f6f6e6c79206973737565722063616e20696e76616c696461746520636572746960008201527f6669636174650000000000000000000000000000000000000000000000000000602082015250565b6000612d3e602683612abe565b9150612d4982612ce2565b604082019050919050565b60006020820190508181036000830152612d6d81612d31565b9050919050565b7f6f6e6c79206973737565722063616e206973737565206365727469666963617460008201527f6573000000000000000000000000000000000000000000000000000000000000602082015250565b6000612dd0602283612abe565b9150612ddb82612d74565b604082019050919050565b60006020820190508181036000830152612dff81612dc3565b9050919050565b7f63657274696669636174652063616e2062652069737375656420746f2075736560008201527f7273206f6e6c7900000000000000000000000000000000000000000000000000602082015250565b6000612e62602783612abe565b9150612e6d82612e06565b604082019050919050565b60006020820190508181036000830152612e9181612e55565b9050919050565b7f636572746966696361746520776974682073616d65207575696420616c72656160008201527f6479207265676973746572656400000000000000000000000000000000000000602082015250565b6000612ef4602d83612abe565b9150612eff82612e98565b604082019050919050565b60006020820190508181036000830152612f2381612ee7565b9050919050565b60008190508160005260206000209050919050565b60006020601f8301049050919050565b600082821b905092915050565b600060088302612f8c7fffffffffffffffffffffffffffffffffffffffffffffffffffffffffffffffff82612f4f565b612f968683612f4f565b95508019841693508086168417925050509392505050565b6000819050919050565b6000612fd3612fce612fc9846127e4565b612fae565b6127e4565b9050919050565b6000819050919050565b612fed83612fb8565b613001612ff982612fda565b848454612f5c565b825550505050565b600090565b613016613009565b613021818484612fe4565b505050565b5b818110156130455761303a60008261300e565b600181019050613027565b5050565b601f82111561308a5761305b81612f2a565b61306484612f3f565b81016020851015613073578190505b61308761307f85612f3f565b830182613026565b50505b505050565b600082821c905092915050565b60006130ad6000198460080261308f565b1980831691505092915050565b60006130c6838361309c565b9150826002028217905092915050565b6130df8261288d565b67ffffffffffffffff8111156130f8576130f7612586565b5b6131028254612c45565b61310d828285613049565b600060209050601f831160018114613140576000841561312e578287015190505b61313885826130ba565b8655506131a0565b601f19841661314e86612f2a565b60005b8281101561317657848901518255600182019150602085019450602081019050613151565b86831015613193578489015161318f601f89168261309c565b8355505b6001600288020188555050505b505050505050565b7f69737375657220616c7265616479207265676973746572656400000000000000600082015250565b60006131de601983612abe565b91506131e9826131a8565b602082019050919050565b6000602082019050818103600083015261320d816131d1565b9050919050565b7f616c726561647920726567697374657265642061732075736572000000000000600082015250565b600061324a601a83612abe565b915061325582613214565b602082019050919050565b600060208201905081810360008301526132798161323d565b9050919050565b7f7573657220616c72656164792072656769737465726564000000000000000000600082015250565b60006132b6601783612abe565b91506132c182613280565b602082019050919050565b600060208201905081810360008301526132e5816132a9565b9050919050565b7f616c726561647920726567697374657265642061732069737375657200000000600082015250565b6000613322601c83612abe565b915061332d826132ec565b602082019050919050565b6000602082019050818103600083015261335181613315565b9050919050565b7f696e76616c696420726f6c650000000000000000000000000000000000000000600082015250565b600061338e600c83612abe565b915061339982613358565b602082019050919050565b600060208201905081810360008301526133bd81613381565b9050919050565b7f4e487b7100000000000000000000000000000000000000000000000000000000600052603260045260246000fd5b6000815461340081612c45565b61340a8186612bc3565b94506001821660008114613425576001811461343a5761346d565b60ff198316865281151582028601935061346d565b61344385612f2a565b60005b8381101561346557815481890152600182019150602081019050613446565b838801955050505b50505092915050565b600061348282846133f3565b915081905092915050565b7f4e487b7100000000000000000000000000000000000000000000000000000000600052601160045260246000fd5b60006134c7826127e4565b91507fffffffffffffffffffffffffffffffffffffffffffffffffffffffffffffffff82036134f9576134f861348d565b5b60018201905091905056fea2646970667358221220a8863c691453474df76f137deefd2e186001190b85247f57ba7bda73ffdbac6e64736f6c63430008110033",
  "linkReferences": {},
  "deployedLinkReferences": {}
}