{
  "_format": "hh-sol-artifact-1",
  "contractName": "Etherdocs",
  "sourceName": "contracts/Etherdocs.sol",
  "abi": [
    {
      "inputs": [],
      "stateMutability": "nonpayable",
      "type": "constructor"
    },
    {
      "inputs": [
        {
          "internalType": "string",
          "name": "_uuid",
          "type": "string"
        }
      ],
      "name": "getCertificate",
      "outputs": [
        {
          "internalType": "address",
          "name": "",
          "type": "address"
        },
        {
          "internalType": "address",
          "name": "",
          "type": "address"
        },
        {
          "internalType": "string",
          "name": "",
          "type": "string"
        },
        {
          "internalType": "string",
          "name": "",
          "type": "string"
        },
        {
          "internalType": "bool",
          "name": "",
          "type": "bool"
        }
      ],
      "stateMutability": "view",
      "type": "function"
    },
    {
      "inputs": [],
      "name": "getCertificatesIssuedBy",
      "outputs": [
        {
          "internalType": "address[]",
          "name": "",
          "type": "address[]"
        },
        {
          "internalType": "address[]",
          "name": "",
          "type": "address[]"
        },
        {
          "internalType": "string[]",
          "name": "",
          "type": "string[]"
        },
        {
          "internalType": "string[]",
          "name": "",
          "type": "string[]"
        },
        {
          "internalType": "bool[]",
          "name": "",
          "type": "bool[]"
        }
      ],
      "stateMutability": "view",
      "type": "function"
    },
    {
      "inputs": [],
      "name": "getCertificatesIssuedFor",
      "outputs": [
        {
          "internalType": "address[]",
          "name": "",
          "type": "address[]"
        },
        {
          "internalType": "address[]",
          "name": "",
          "type": "address[]"
        },
        {
          "internalType": "string[]",
          "name": "",
          "type": "string[]"
        },
        {
          "internalType": "string[]",
          "name": "",
          "type": "string[]"
        },
        {
          "internalType": "bool[]",
          "name": "",
          "type": "bool[]"
        }
      ],
      "stateMutability": "view",
      "type": "function"
    },
    {
      "inputs": [],
      "name": "getProfile",
      "outputs": [
        {
          "internalType": "address",
          "name": "",
          "type": "address"
        },
        {
          "internalType": "string",
          "name": "",
          "type": "string"
        },
        {
          "internalType": "string",
          "name": "",
          "type": "string"
        }
      ],
      "stateMutability": "view",
      "type": "function"
    },
    {
      "inputs": [
        {
          "internalType": "string",
          "name": "_uuid",
          "type": "string"
        }
      ],
      "name": "invalidateCertificate",
      "outputs": [],
      "stateMutability": "nonpayable",
      "type": "function"
    },
    {
      "inputs": [],
      "name": "isRegistered",
      "outputs": [
        {
          "internalType": "bool",
          "name": "",
          "type": "bool"
        }
      ],
      "stateMutability": "view",
      "type": "function"
    },
    {
      "inputs": [],
      "name": "isUser",
      "outputs": [
        {
          "internalType": "bool",
          "name": "",
          "type": "bool"
        }
      ],
      "stateMutability": "view",
      "type": "function"
    },
    {
      "inputs": [
        {
          "internalType": "address",
          "name": "_userAddr",
          "type": "address"
        },
        {
          "internalType": "string",
          "name": "_uuid",
          "type": "string"
        },
        {
          "internalType": "string",
          "name": "_hashValue",
          "type": "string"
        },
        {
          "internalType": "string",
          "name": "_ipfsUrl",
          "type": "string"
        }
      ],
      "name": "issueCertificate",
      "outputs": [],
      "stateMutability": "nonpayable",
      "type": "function"
    },
    {
      "inputs": [
        {
          "internalType": "string",
          "name": "_name",
          "type": "string"
        }
      ],
      "name": "registerIssuer",
      "outputs": [],
      "stateMutability": "nonpayable",
      "type": "function"
    },
    {
      "inputs": [
        {
          "internalType": "string",
          "name": "_name",
          "type": "string"
        }
      ],
      "name": "registerUser",
      "outputs": [],
      "stateMutability": "nonpayable",
      "type": "function"
    },
    {
      "inputs": [
        {
          "internalType": "string",
          "name": "_uuid",
          "type": "string"
        },
        {
          "internalType": "address",
          "name": "_issuerAddr",
          "type": "address"
        },
        {
          "internalType": "address",
          "name": "_userAddr",
          "type": "address"
        },
        {
          "internalType": "string",
          "name": "_hashValue",
          "type": "string"
        }
      ],
      "name": "verifyCertificate",
      "outputs": [
        {
          "internalType": "bool",
          "name": "",
          "type": "bool"
        }
      ],
      "stateMutability": "view",
      "type": "function"
    }
  ],
  "bytecode": "0x608060405234801561001057600080fd5b50336000806101000a81548173ffffffffffffffffffffffffffffffffffffffff021916908373ffffffffffffffffffffffffffffffffffffffff1602179055506138ed806100606000396000f3fe608060405234801561001057600080fd5b50600436106100a95760003560e01c80636f4581dc116100715780636f4581dc14610158578063704f1b94146101745780638eb933ac14610190578063cfa026da146101ac578063d6afc9b1146101ce578063ed0f2e75146101ee576100a9565b806306982546146100ae57806322366844146100de57806324f349f9146100fc578063455a04ab146101185780634c22c1191461013a575b600080fd5b6100c860048036038101906100c391906128cf565b610222565b6040516100d59190612989565b60405180910390f35b6100e66103ea565b6040516100f39190612989565b60405180910390f35b610116600480360381019061011191906129a4565b6103ff565b005b61012061052c565b604051610131959493929190612caa565b60405180910390f35b61014261054e565b60405161014f9190612989565b60405180910390f35b610172600480360381019061016d91906129a4565b610563565b005b61018e600480360381019061018991906129a4565b61072c565b005b6101aa60048036038101906101a59190612d20565b6108f5565b005b6101b4610b62565b6040516101c5959493929190612caa565b60405180910390f35b6101d6610b84565b6040516101e593929190612e34565b60405180910390f35b610208600480360381019061020391906129a4565b610fac565b604051610219959493929190612e79565b60405180910390f35b6000806005866040516102359190612f16565b908152602001604051809103902090508060050160019054906101000a900460ff16158061027257508060050160009054906101000a900460ff16155b156102815760009150506103e2565b8473ffffffffffffffffffffffffffffffffffffffff168160000160009054906101000a900473ffffffffffffffffffffffffffffffffffffffff1673ffffffffffffffffffffffffffffffffffffffff1614801561032f57508373ffffffffffffffffffffffffffffffffffffffff168160010160009054906101000a900473ffffffffffffffffffffffffffffffffffffffff1673ffffffffffffffffffffffffffffffffffffffff16145b80156103cd57506103cc81600301805461034890612f5c565b80601f016020809104026020016040519081016040528092919081815260200182805461037490612f5c565b80156103c15780601f10610396576101008083540402835291602001916103c1565b820191906000526020600020905b8154815290600101906020018083116103a457829003601f168201915b505050505084611251565b5b156103dc5760019150506103e2565b60009150505b949350505050565b6000803390506103f9816112aa565b91505090565b60006005826040516104119190612f16565b90815260200160405180910390209050600115158160050160009054906101000a900460ff16151514610479576040517f08c379a000000000000000000000000000000000000000000000000000000000815260040161047090612fd9565b60405180910390fd5b8060000160009054906101000a900473ffffffffffffffffffffffffffffffffffffffff1673ffffffffffffffffffffffffffffffffffffffff163373ffffffffffffffffffffffffffffffffffffffff161461050b576040517f08c379a00000000000000000000000000000000000000000000000000000000081526004016105029061306b565b60405180910390fd5b60008160050160016101000a81548160ff0219169083151502179055505050565b606080606080606061053d3361137b565b945094509450945094509091929394565b60008033905061055d8161198e565b91505090565b60003390506000600160008373ffffffffffffffffffffffffffffffffffffffff1673ffffffffffffffffffffffffffffffffffffffff1681526020019081526020016000209050600015158160010160149054906101000a900460ff16151514610603576040517f08c379a00000000000000000000000000000000000000000000000000000000081526004016105fa906130d7565b60405180910390fd5b600015156106108361198e565b151514610652576040517f08c379a000000000000000000000000000000000000000000000000000000000815260040161064990613143565b60405180910390fd5b818160010160006101000a81548173ffffffffffffffffffffffffffffffffffffffff021916908373ffffffffffffffffffffffffffffffffffffffff16021790555060018160010160146101000a81548160ff021916908315150217905550828160000190816106c39190613319565b506002829080600181540180825580915050600190039060005260206000200160009091909190916101000a81548173ffffffffffffffffffffffffffffffffffffffff021916908373ffffffffffffffffffffffffffffffffffffffff160217905550505050565b60003390506000600360008373ffffffffffffffffffffffffffffffffffffffff1673ffffffffffffffffffffffffffffffffffffffff1681526020019081526020016000209050600015158160010160149054906101000a900460ff161515146107cc576040517f08c379a00000000000000000000000000000000000000000000000000000000081526004016107c390613437565b60405180910390fd5b600015156107d9836119ec565b15151461081b576040517f08c379a0000000000000000000000000000000000000000000000000000000008152600401610812906134a3565b60405180910390fd5b818160010160006101000a81548173ffffffffffffffffffffffffffffffffffffffff021916908373ffffffffffffffffffffffffffffffffffffffff16021790555060018160010160146101000a81548160ff0219169083151502179055508281600001908161088c9190613319565b506004829080600181540180825580915050600190039060005260206000200160009091909190916101000a81548173ffffffffffffffffffffffffffffffffffffffff021916908373ffffffffffffffffffffffffffffffffffffffff160217905550505050565b60011515610902336119ec565b151514610944576040517f08c379a000000000000000000000000000000000000000000000000000000000815260040161093b90613535565b60405180910390fd5b600115156109518561198e565b151514610993576040517f08c379a000000000000000000000000000000000000000000000000000000000815260040161098a906135c7565b60405180910390fd5b600015156005846040516109a79190612f16565b908152602001604051809103902060050160009054906101000a900460ff16151514610a08576040517f08c379a00000000000000000000000000000000000000000000000000000000081526004016109ff90613659565b60405180910390fd5b60003390506000600585604051610a1f9190612f16565b9081526020016040518091039020905060018160050160006101000a81548160ff021916908315150217905550818160000160006101000a81548173ffffffffffffffffffffffffffffffffffffffff021916908373ffffffffffffffffffffffffffffffffffffffff160217905550858160010160006101000a81548173ffffffffffffffffffffffffffffffffffffffff021916908373ffffffffffffffffffffffffffffffffffffffff16021790555084816002019081610ae39190613319565b5083816003019081610af59190613319565b5082816004019081610b079190613319565b5060018160050160016101000a81548160ff021916908315150217905550600685908060018154018082558091505060019003906000526020600020016000909190919091509081610b599190613319565b50505050505050565b6060806060806060610b7333611a4a565b945094509450945094509091929394565b60006060806000339050610b97816112aa565b610c1457806040518060400160405280600281526020017f4e410000000000000000000000000000000000000000000000000000000000008152506040518060400160405280600281526020017f4e4100000000000000000000000000000000000000000000000000000000000081525093509350935050610fa7565b610c1d8161198e565b15610dc0576000600360008373ffffffffffffffffffffffffffffffffffffffff1673ffffffffffffffffffffffffffffffffffffffff168152602001908152602001600020604051806060016040529081600082018054610c7e90612f5c565b80601f0160208091040260200160405190810160405280929190818152602001828054610caa90612f5c565b8015610cf75780601f10610ccc57610100808354040283529160200191610cf7565b820191906000526020600020905b815481529060010190602001808311610cda57829003601f168201915b505050505081526020016001820160009054906101000a900473ffffffffffffffffffffffffffffffffffffffff1673ffffffffffffffffffffffffffffffffffffffff1673ffffffffffffffffffffffffffffffffffffffff1681526020016001820160149054906101000a900460ff1615151515815250509050806020015181600001516040518060400160405280600481526020017f55736572000000000000000000000000000000000000000000000000000000008152509450945094505050610fa7565b610dc9816119ec565b15610f6c576000600160008373ffffffffffffffffffffffffffffffffffffffff1673ffffffffffffffffffffffffffffffffffffffff168152602001908152602001600020604051806060016040529081600082018054610e2a90612f5c565b80601f0160208091040260200160405190810160405280929190818152602001828054610e5690612f5c565b8015610ea35780601f10610e7857610100808354040283529160200191610ea3565b820191906000526020600020905b815481529060010190602001808311610e8657829003601f168201915b505050505081526020016001820160009054906101000a900473ffffffffffffffffffffffffffffffffffffffff1673ffffffffffffffffffffffffffffffffffffffff1673ffffffffffffffffffffffffffffffffffffffff1681526020016001820160149054906101000a900460ff1615151515815250509050806020015181600001516040518060400160405280600681526020017f49737375657200000000000000000000000000000000000000000000000000008152509450945094505050610fa7565b6040517f08c379a0000000000000000000000000000000000000000000000000000000008152600401610f9e906136c5565b60405180910390fd5b909192565b600080606080600080600587604051610fc59190612f16565b908152602001604051809103902090508060000160009054906101000a900473ffffffffffffffffffffffffffffffffffffffff1673ffffffffffffffffffffffffffffffffffffffff163373ffffffffffffffffffffffffffffffffffffffff16148061108257508060010160009054906101000a900473ffffffffffffffffffffffffffffffffffffffff1673ffffffffffffffffffffffffffffffffffffffff163373ffffffffffffffffffffffffffffffffffffffff16145b6110c1576040517f08c379a00000000000000000000000000000000000000000000000000000000081526004016110b890613757565b60405180910390fd5b8060000160009054906101000a900473ffffffffffffffffffffffffffffffffffffffff168160010160009054906101000a900473ffffffffffffffffffffffffffffffffffffffff1682600201836004018460050160019054906101000a900460ff1682805461113190612f5c565b80601f016020809104026020016040519081016040528092919081815260200182805461115d90612f5c565b80156111aa5780601f1061117f576101008083540402835291602001916111aa565b820191906000526020600020905b81548152906001019060200180831161118d57829003601f168201915b505050505092508180546111bd90612f5c565b80601f01602080910402602001604051908101604052809291908181526020018280546111e990612f5c565b80156112365780601f1061120b57610100808354040283529160200191611236565b820191906000526020600020905b81548152906001019060200180831161121957829003601f168201915b50505050509150955095509550955095505091939590929450565b6000816040516020016112649190612f16565b604051602081830303815290604052805190602001208360405160200161128b9190612f16565b6040516020818303038152906040528051906020012014905092915050565b600080600360008473ffffffffffffffffffffffffffffffffffffffff1673ffffffffffffffffffffffffffffffffffffffff16815260200190815260200160002060010160149054906101000a900460ff1690506000600160008573ffffffffffffffffffffffffffffffffffffffff1673ffffffffffffffffffffffffffffffffffffffff16815260200190815260200160002060010160149054906101000a900460ff1690508115801561135f575080155b1561136f57600092505050611376565b6001925050505b919050565b6060806060806060600061138e8761205d565b905060008167ffffffffffffffff8111156113ac576113ab612746565b5b6040519080825280602002602001820160405280156113da5781602001602082028036833780820191505090505b50905060008267ffffffffffffffff8111156113f9576113f8612746565b5b6040519080825280602002602001820160405280156114275781602001602082028036833780820191505090505b50905060008367ffffffffffffffff81111561144657611445612746565b5b60405190808252806020026020018201604052801561147957816020015b60608152602001906001900390816114645790505b50905060008467ffffffffffffffff81111561149857611497612746565b5b6040519080825280602002602001820160405280156114cb57816020015b60608152602001906001900390816114b65790505b50905060008567ffffffffffffffff8111156114ea576114e9612746565b5b6040519080825280602002602001820160405280156115185781602001602082028036833780820191505090505b5090506000805b60068054905081101561196e57600060056006838154811061154457611543613777565b5b9060005260206000200160405161155b9190613829565b90815260200160405180910390206040518060e00160405290816000820160009054906101000a900473ffffffffffffffffffffffffffffffffffffffff1673ffffffffffffffffffffffffffffffffffffffff1673ffffffffffffffffffffffffffffffffffffffff1681526020016001820160009054906101000a900473ffffffffffffffffffffffffffffffffffffffff1673ffffffffffffffffffffffffffffffffffffffff1673ffffffffffffffffffffffffffffffffffffffff16815260200160028201805461163090612f5c565b80601f016020809104026020016040519081016040528092919081815260200182805461165c90612f5c565b80156116a95780601f1061167e576101008083540402835291602001916116a9565b820191906000526020600020905b81548152906001019060200180831161168c57829003601f168201915b505050505081526020016003820180546116c290612f5c565b80601f01602080910402602001604051908101604052809291908181526020018280546116ee90612f5c565b801561173b5780601f106117105761010080835404028352916020019161173b565b820191906000526020600020905b81548152906001019060200180831161171e57829003601f168201915b5050505050815260200160048201805461175490612f5c565b80601f016020809104026020016040519081016040528092919081815260200182805461178090612f5c565b80156117cd5780601f106117a2576101008083540402835291602001916117cd565b820191906000526020600020905b8154815290600101906020018083116117b057829003601f168201915b505050505081526020016005820160009054906101000a900460ff161515151581526020016005820160019054906101000a900460ff16151515158152505090508e73ffffffffffffffffffffffffffffffffffffffff16816000015173ffffffffffffffffffffffffffffffffffffffff160361195a57806000015188848151811061185d5761185c613777565b5b602002602001019073ffffffffffffffffffffffffffffffffffffffff16908173ffffffffffffffffffffffffffffffffffffffff168152505080602001518784815181106118af576118ae613777565b5b602002602001019073ffffffffffffffffffffffffffffffffffffffff16908173ffffffffffffffffffffffffffffffffffffffff1681525050806040015186848151811061190157611900613777565b5b6020026020010181905250806080015185848151811061192457611923613777565b5b60200260200101819052508060c0015184848151811061194757611946613777565b5b6020026020010190151590811515815250505b5080806119669061386f565b91505061151f565b5085858585859b509b509b509b509b505050505050505091939590929450565b600080600360008473ffffffffffffffffffffffffffffffffffffffff1673ffffffffffffffffffffffffffffffffffffffff16815260200190815260200160002060010160149054906101000a900460ff16905080915050919050565b600080600160008473ffffffffffffffffffffffffffffffffffffffff1673ffffffffffffffffffffffffffffffffffffffff16815260200190815260200160002060010160149054906101000a900460ff16905080915050919050565b60608060608060606000611a5d876123ba565b905060008167ffffffffffffffff811115611a7b57611a7a612746565b5b604051908082528060200260200182016040528015611aa95781602001602082028036833780820191505090505b50905060008267ffffffffffffffff811115611ac857611ac7612746565b5b604051908082528060200260200182016040528015611af65781602001602082028036833780820191505090505b50905060008367ffffffffffffffff811115611b1557611b14612746565b5b604051908082528060200260200182016040528015611b4857816020015b6060815260200190600190039081611b335790505b50905060008467ffffffffffffffff811115611b6757611b66612746565b5b604051908082528060200260200182016040528015611b9a57816020015b6060815260200190600190039081611b855790505b50905060008567ffffffffffffffff811115611bb957611bb8612746565b5b604051908082528060200260200182016040528015611be75781602001602082028036833780820191505090505b5090506000805b60068054905081101561203d576000600560068381548110611c1357611c12613777565b5b90600052602060002001604051611c2a9190613829565b90815260200160405180910390206040518060e00160405290816000820160009054906101000a900473ffffffffffffffffffffffffffffffffffffffff1673ffffffffffffffffffffffffffffffffffffffff1673ffffffffffffffffffffffffffffffffffffffff1681526020016001820160009054906101000a900473ffffffffffffffffffffffffffffffffffffffff1673ffffffffffffffffffffffffffffffffffffffff1673ffffffffffffffffffffffffffffffffffffffff168152602001600282018054611cff90612f5c565b80601f0160208091040260200160405190810160405280929190818152602001828054611d2b90612f5c565b8015611d785780601f10611d4d57610100808354040283529160200191611d78565b820191906000526020600020905b815481529060010190602001808311611d5b57829003601f168201915b50505050508152602001600382018054611d9190612f5c565b80601f0160208091040260200160405190810160405280929190818152602001828054611dbd90612f5c565b8015611e0a5780601f10611ddf57610100808354040283529160200191611e0a565b820191906000526020600020905b815481529060010190602001808311611ded57829003601f168201915b50505050508152602001600482018054611e2390612f5c565b80601f0160208091040260200160405190810160405280929190818152602001828054611e4f90612f5c565b8015611e9c5780601f10611e7157610100808354040283529160200191611e9c565b820191906000526020600020905b815481529060010190602001808311611e7f57829003601f168201915b505050505081526020016005820160009054906101000a900460ff161515151581526020016005820160019054906101000a900460ff16151515158152505090508e73ffffffffffffffffffffffffffffffffffffffff16816020015173ffffffffffffffffffffffffffffffffffffffff1603612029578060000151888481518110611f2c57611f2b613777565b5b602002602001019073ffffffffffffffffffffffffffffffffffffffff16908173ffffffffffffffffffffffffffffffffffffffff16815250508060200151878481518110611f7e57611f7d613777565b5b602002602001019073ffffffffffffffffffffffffffffffffffffffff16908173ffffffffffffffffffffffffffffffffffffffff16815250508060400151868481518110611fd057611fcf613777565b5b60200260200101819052508060800151858481518110611ff357611ff2613777565b5b60200260200101819052508060c0015184848151811061201657612015613777565b5b6020026020010190151590811515815250505b5080806120359061386f565b915050611bee565b5085858585859b509b509b509b509b505050505050505091939590929450565b6000806000905060005b6006805490508110156123b057600060056006838154811061208c5761208b613777565b5b906000526020600020016040516120a39190613829565b90815260200160405180910390206040518060e00160405290816000820160009054906101000a900473ffffffffffffffffffffffffffffffffffffffff1673ffffffffffffffffffffffffffffffffffffffff1673ffffffffffffffffffffffffffffffffffffffff1681526020016001820160009054906101000a900473ffffffffffffffffffffffffffffffffffffffff1673ffffffffffffffffffffffffffffffffffffffff1673ffffffffffffffffffffffffffffffffffffffff16815260200160028201805461217890612f5c565b80601f01602080910402602001604051908101604052809291908181526020018280546121a490612f5c565b80156121f15780601f106121c6576101008083540402835291602001916121f1565b820191906000526020600020905b8154815290600101906020018083116121d457829003601f168201915b5050505050815260200160038201805461220a90612f5c565b80601f016020809104026020016040519081016040528092919081815260200182805461223690612f5c565b80156122835780601f1061225857610100808354040283529160200191612283565b820191906000526020600020905b81548152906001019060200180831161226657829003601f168201915b5050505050815260200160048201805461229c90612f5c565b80601f01602080910402602001604051908101604052809291908181526020018280546122c890612f5c565b80156123155780601f106122ea57610100808354040283529160200191612315565b820191906000526020600020905b8154815290600101906020018083116122f857829003601f168201915b505050505081526020016005820160009054906101000a900460ff161515151581526020016005820160019054906101000a900460ff16151515158152505090508473ffffffffffffffffffffffffffffffffffffffff16816000015173ffffffffffffffffffffffffffffffffffffffff160361239c5782806123989061386f565b9350505b5080806123a89061386f565b915050612067565b5080915050919050565b6000806000905060005b60068054905081101561270d5760006005600683815481106123e9576123e8613777565b5b906000526020600020016040516124009190613829565b90815260200160405180910390206040518060e00160405290816000820160009054906101000a900473ffffffffffffffffffffffffffffffffffffffff1673ffffffffffffffffffffffffffffffffffffffff1673ffffffffffffffffffffffffffffffffffffffff1681526020016001820160009054906101000a900473ffffffffffffffffffffffffffffffffffffffff1673ffffffffffffffffffffffffffffffffffffffff1673ffffffffffffffffffffffffffffffffffffffff1681526020016002820180546124d590612f5c565b80601f016020809104026020016040519081016040528092919081815260200182805461250190612f5c565b801561254e5780601f106125235761010080835404028352916020019161254e565b820191906000526020600020905b81548152906001019060200180831161253157829003601f168201915b5050505050815260200160038201805461256790612f5c565b80601f016020809104026020016040519081016040528092919081815260200182805461259390612f5c565b80156125e05780601f106125b5576101008083540402835291602001916125e0565b820191906000526020600020905b8154815290600101906020018083116125c357829003601f168201915b505050505081526020016004820180546125f990612f5c565b80601f016020809104026020016040519081016040528092919081815260200182805461262590612f5c565b80156126725780601f1061264757610100808354040283529160200191612672565b820191906000526020600020905b81548152906001019060200180831161265557829003601f168201915b505050505081526020016005820160009054906101000a900460ff161515151581526020016005820160019054906101000a900460ff16151515158152505090508473ffffffffffffffffffffffffffffffffffffffff16816020015173ffffffffffffffffffffffffffffffffffffffff16036126f95782806126f59061386f565b9350505b5080806127059061386f565b9150506123c4565b5080915050919050565b6000604051905090565b600080fd5b600080fd5b600080fd5b600080fd5b6000601f19601f8301169050919050565b7f4e487b7100000000000000000000000000000000000000000000000000000000600052604160045260246000fd5b61277e82612735565b810181811067ffffffffffffffff8211171561279d5761279c612746565b5b80604052505050565b60006127b0612717565b90506127bc8282612775565b919050565b600067ffffffffffffffff8211156127dc576127db612746565b5b6127e582612735565b9050602081019050919050565b82818337600083830152505050565b600061281461280f846127c1565b6127a6565b9050828152602081018484840111156128305761282f612730565b5b61283b8482856127f2565b509392505050565b600082601f8301126128585761285761272b565b5b8135612868848260208601612801565b91505092915050565b600073ffffffffffffffffffffffffffffffffffffffff82169050919050565b600061289c82612871565b9050919050565b6128ac81612891565b81146128b757600080fd5b50565b6000813590506128c9816128a3565b92915050565b600080600080608085870312156128e9576128e8612721565b5b600085013567ffffffffffffffff81111561290757612906612726565b5b61291387828801612843565b9450506020612924878288016128ba565b9350506040612935878288016128ba565b925050606085013567ffffffffffffffff81111561295657612955612726565b5b61296287828801612843565b91505092959194509250565b60008115159050919050565b6129838161296e565b82525050565b600060208201905061299e600083018461297a565b92915050565b6000602082840312156129ba576129b9612721565b5b600082013567ffffffffffffffff8111156129d8576129d7612726565b5b6129e484828501612843565b91505092915050565b600081519050919050565b600082825260208201905092915050565b6000819050602082019050919050565b612a2281612891565b82525050565b6000612a348383612a19565b60208301905092915050565b6000602082019050919050565b6000612a58826129ed565b612a6281856129f8565b9350612a6d83612a09565b8060005b83811015612a9e578151612a858882612a28565b9750612a9083612a40565b925050600181019050612a71565b5085935050505092915050565b600081519050919050565b600082825260208201905092915050565b6000819050602082019050919050565b600081519050919050565b600082825260208201905092915050565b60005b83811015612b11578082015181840152602081019050612af6565b60008484015250505050565b6000612b2882612ad7565b612b328185612ae2565b9350612b42818560208601612af3565b612b4b81612735565b840191505092915050565b6000612b628383612b1d565b905092915050565b6000602082019050919050565b6000612b8282612aab565b612b8c8185612ab6565b935083602082028501612b9e85612ac7565b8060005b85811015612bda5784840389528151612bbb8582612b56565b9450612bc683612b6a565b925060208a01995050600181019050612ba2565b50829750879550505050505092915050565b600081519050919050565b600082825260208201905092915050565b6000819050602082019050919050565b612c218161296e565b82525050565b6000612c338383612c18565b60208301905092915050565b6000602082019050919050565b6000612c5782612bec565b612c618185612bf7565b9350612c6c83612c08565b8060005b83811015612c9d578151612c848882612c27565b9750612c8f83612c3f565b925050600181019050612c70565b5085935050505092915050565b600060a0820190508181036000830152612cc48188612a4d565b90508181036020830152612cd88187612a4d565b90508181036040830152612cec8186612b77565b90508181036060830152612d008185612b77565b90508181036080830152612d148184612c4c565b90509695505050505050565b60008060008060808587031215612d3a57612d39612721565b5b6000612d48878288016128ba565b945050602085013567ffffffffffffffff811115612d6957612d68612726565b5b612d7587828801612843565b935050604085013567ffffffffffffffff811115612d9657612d95612726565b5b612da287828801612843565b925050606085013567ffffffffffffffff811115612dc357612dc2612726565b5b612dcf87828801612843565b91505092959194509250565b612de481612891565b82525050565b600082825260208201905092915050565b6000612e0682612ad7565b612e108185612dea565b9350612e20818560208601612af3565b612e2981612735565b840191505092915050565b6000606082019050612e496000830186612ddb565b8181036020830152612e5b8185612dfb565b90508181036040830152612e6f8184612dfb565b9050949350505050565b600060a082019050612e8e6000830188612ddb565b612e9b6020830187612ddb565b8181036040830152612ead8186612dfb565b90508181036060830152612ec18185612dfb565b9050612ed0608083018461297a565b9695505050505050565b600081905092915050565b6000612ef082612ad7565b612efa8185612eda565b9350612f0a818560208601612af3565b80840191505092915050565b6000612f228284612ee5565b915081905092915050565b7f4e487b7100000000000000000000000000000000000000000000000000000000600052602260045260246000fd5b60006002820490506001821680612f7457607f821691505b602082108103612f8757612f86612f2d565b5b50919050565b7f696e76616c696465206365727469666963617465207575696400000000000000600082015250565b6000612fc3601983612dea565b9150612fce82612f8d565b602082019050919050565b60006020820190508181036000830152612ff281612fb6565b9050919050565b7f6f6e6c79206973737565722063616e20696e76616c696461746520636572746960008201527f6669636174650000000000000000000000000000000000000000000000000000602082015250565b6000613055602683612dea565b915061306082612ff9565b604082019050919050565b6000602082019050818103600083015261308481613048565b9050919050565b7f69737375657220616c7265616479207265676973746572656400000000000000600082015250565b60006130c1601983612dea565b91506130cc8261308b565b602082019050919050565b600060208201905081810360008301526130f0816130b4565b9050919050565b7f616c726561647920726567697374657265642061732075736572000000000000600082015250565b600061312d601a83612dea565b9150613138826130f7565b602082019050919050565b6000602082019050818103600083015261315c81613120565b9050919050565b60008190508160005260206000209050919050565b60006020601f8301049050919050565b600082821b905092915050565b6000600883026131c57fffffffffffffffffffffffffffffffffffffffffffffffffffffffffffffffff82613188565b6131cf8683613188565b95508019841693508086168417925050509392505050565b6000819050919050565b6000819050919050565b600061321661321161320c846131e7565b6131f1565b6131e7565b9050919050565b6000819050919050565b613230836131fb565b61324461323c8261321d565b848454613195565b825550505050565b600090565b61325961324c565b613264818484613227565b505050565b5b818110156132885761327d600082613251565b60018101905061326a565b5050565b601f8211156132cd5761329e81613163565b6132a784613178565b810160208510156132b6578190505b6132ca6132c285613178565b830182613269565b50505b505050565b600082821c905092915050565b60006132f0600019846008026132d2565b1980831691505092915050565b600061330983836132df565b9150826002028217905092915050565b61332282612ad7565b67ffffffffffffffff81111561333b5761333a612746565b5b6133458254612f5c565b61335082828561328c565b600060209050601f8311600181146133835760008415613371578287015190505b61337b85826132fd565b8655506133e3565b601f19841661339186613163565b60005b828110156133b957848901518255600182019150602085019450602081019050613394565b868310156133d657848901516133d2601f8916826132df565b8355505b6001600288020188555050505b505050505050565b7f7573657220616c72656164792072656769737465726564000000000000000000600082015250565b6000613421601783612dea565b915061342c826133eb565b602082019050919050565b6000602082019050818103600083015261345081613414565b9050919050565b7f616c726561647920726567697374657265642061732069737375657200000000600082015250565b600061348d601c83612dea565b915061349882613457565b602082019050919050565b600060208201905081810360008301526134bc81613480565b9050919050565b7f6f6e6c79206973737565722063616e206973737565206365727469666963617460008201527f6573000000000000000000000000000000000000000000000000000000000000602082015250565b600061351f602283612dea565b915061352a826134c3565b604082019050919050565b6000602082019050818103600083015261354e81613512565b9050919050565b7f63657274696669636174652063616e2062652069737375656420746f2075736560008201527f7273206f6e6c7900000000000000000000000000000000000000000000000000602082015250565b60006135b1602783612dea565b91506135bc82613555565b604082019050919050565b600060208201905081810360008301526135e0816135a4565b9050919050565b7f636572746966696361746520776974682073616d65207575696420616c72656160008201527f6479207265676973746572656400000000000000000000000000000000000000602082015250565b6000613643602d83612dea565b915061364e826135e7565b604082019050919050565b6000602082019050818103600083015261367281613636565b9050919050565b7f696e76616c696420726f6c650000000000000000000000000000000000000000600082015250565b60006136af600c83612dea565b91506136ba82613679565b602082019050919050565b600060208201905081810360008301526136de816136a2565b9050919050565b7f6f6e6c79207573657220616e64206973737565722063616e206765742063657260008201527f74696669636174652064657461696c7300000000000000000000000000000000602082015250565b6000613741603083612dea565b915061374c826136e5565b604082019050919050565b6000602082019050818103600083015261377081613734565b9050919050565b7f4e487b7100000000000000000000000000000000000000000000000000000000600052603260045260246000fd5b600081546137b381612f5c565b6137bd8186612eda565b945060018216600081146137d857600181146137ed57613820565b60ff1983168652811515820286019350613820565b6137f685613163565b60005b83811015613818578154818901526001820191506020810190506137f9565b838801955050505b50505092915050565b600061383582846137a6565b915081905092915050565b7f4e487b7100000000000000000000000000000000000000000000000000000000600052601160045260246000fd5b600061387a826131e7565b91507fffffffffffffffffffffffffffffffffffffffffffffffffffffffffffffffff82036138ac576138ab613840565b5b60018201905091905056fea2646970667358221220e42c11a1640032c3d7c393abfe0d40187f0ead42146f7e4f4104d14ef1aa233664736f6c63430008110033",
  "linkReferences": {},
  "deployedLinkReferences": {}
}